:020000040800F2
:10000000C0050020D5000008FD1400083D130008BD
:1000100000000000000000000000000000000000E0
:10002000000000000000000000000000471500086C
:1000300000000000000000004515000849150008F8
:100040000501000805010008050100080501000878
:100050000501000805010008050100080501000868
:100060000501000805010008050100080501000858
:100070000501000805010008050100080501000848
:100080000501000800000000000000000501000854
:100090000000000005010008050100080501000836
:1000A0000000000005010008050100080501000826
:1000B0000501000800000000050100080501000816
:1000C0000348854600F062F9004800476D180008B3
:1000D000C00500200C4880F308880C480168090E10
:1000E0000B4A914205D10B480B4901600B480C4962
:1000F00001600C4880470C480047FEE7FEE7FEE73A
:10010000FEE7FEE7FEE70000C00500200400000057
:100110001F00000018100240010000000000014014
:100120000000000091150008C100000830B50B4622
:10013000014600202022012409E00D46D5409D42C1
:1001400005D31D469540491B254695404019154647
:10015000521E002DF1DC30BDD2B201E00270401C15
:10016000491EFBD270470022F6E710B513460A4637
:1001700004461946FFF7F0FF204610BDF8B50246C9
:100180004A40D40F42004B0052085B089A4202D208
:100190000246084611464A0023D0C30D4A00DDB28C
:1001A000120EAD1A202D35DA49020126490AF6054C
:1001B0008A19002C00D0524220214F1B1146B94011
:1001C0002A411018C20D9A4221D0002C17D0012DBF
:1001D00008DCDA05801AD20F8019D207DBB200F0F2
:1001E0009BF8F8BDDA05801A012340001B06C018F1
:1001F00080185A428018CA0F1043490007E0490886
:10020000C2071143DA05801A80194008801800F0EF
:100210007BF8F8BD61000122511A001BF7E70122AB
:10022000D2075140AAE70122D2075040A6E770B595
:1002300002464A40D50F40004A00ED0740085208E8
:10024000002814D0002A12D0C40DD30D4102012081
:10025000C0055202490A520AE41A091812187D34DC
:10026000914201D3641C00E04900002C01DA002017
:1002700070BD0023914201D3891A0343400849000D
:100280000028F7D100290AD0914202D10121C907E3
:1002900005E0914201D2012101E00121C943E005BD
:1002A000C018401900F030F870BD10B50022962338
:1002B000114600F031F810BD410040020122400A11
:1002C000D205090E80187F2901DA0020704796298F
:1002D00003DC9622511AC84070479639884070470F
:1002E0000122D207002800DB101A002900DB511A76
:1002F000814270470122D207002800DB101A002932
:1003000000DB511A88427047002904DA401C49007A
:1003100001D140084000704770B40024050C05D19D
:100320001024000402D1002921D01124050E01D18E
:1003300000020834050F01D10001241D850F01D1F1
:100340008000A41C002801DB4000641C002908D0A8
:1003500020252E1B0D46F540A14000D00121294348
:10036000084301061B1B000ADB1D02D5002070BCE0
:100370007047DB05181880180029F8DA401C49007E
:10038000F5D170BC4008400070470000064C0125C4
:10039000064E05E0E36807CC2B430C3C984710342D
:1003A000B442F7D3FFF790FE2C1B00084C1B00084B
:1003B000F8B5044600200090206881688907890FFD
:1003C000012905D10168C9072CD1C168090429D4C4
:1003D0008168154A102611400125002915D1816830
:1003E00029438160124811490068FFF79FFE00E031
:1003F000401E00900028FBD100F0E2FA07460CE016
:1004000000F0DEFAC01B022807D9606C304360643C
:10041000A06C2843A0640120F8BD20680068C04398
:10042000C007EDD10020F8BD1700008040420F004A
:1004300028000020F8B500250446403400952278B5
:10044000012A3BD00122227003689E68760776D489
:100450003F4F4E68BE4254D09E6A0F78BA40164352
:100460009E620123826B1B079A421FD0012A1DD076
:10047000022A1BD0032A19D0042A17D0052A15D026
:10048000062A13D0072A11D002688B6856697607AE
:10049000760FB3420AD05369DB08DB005361006872
:1004A00042690B7A5B075B0F1A43426108681028A8
:1004B00006D0112804D0122802D045E00220F8BD51
:1004C000244A9368102809D011280AD00120000678
:1004D000034393600868102806D035E00120C0056A
:1004E000F6E701208005F3E71C481B490068FFF789
:1004F0001DFE0A21484300E0401E00900028FBD169
:1005000022E0986A0E78B2409043986208681028FA
:1005100003D0112801D0122816D10E498A6810285C
:1005200007D0112808D00120000682438A600BE022
:1005300005E00120C005F8E701208005F5E7416CE2
:100540002022114341640125002020702846F8BD77
:10055000011000000027014040420F002800002049
:100560000068006C70470000F8B5002504460028BC
:1005700003D0606C002802D008E00120F8BD002004
:10058000A06440210855204600F0A8F8606C1022B5
:10059000104270D12068816849076CD4616C1301E6
:1005A000994302231943616481688907890F0129EE
:1005B00005D10168C9070FD1C16809040CD4C1680D
:1005C0001826B143A6683143C16020680169666896
:1005D00089008908314301612068C1683D4E31407E
:1005E000C160A069E1698003C9030843216A4E0321
:1005F0003043666B012E02D00126360300E0002650
:100600003043E66830432669022E08D00026304386
:10061000266B76003043666A012E02D00BE004267A
:10062000F5E7002928D0616C202631436164A16C74
:1006300001263143A164A16A0E46FF3EC23E02D0AC
:10064000E66A314308432168CE680643CE6001263E
:10065000A16B3607B14213D0012911D002290FD066
:1006600003290DD004290BD0052909D0062907D06C
:10067000072905D010E028E0012109040843DAE742
:1006800021684E69F608F6004E6121684E69278F91
:100690007F077F0F3E434E612168C9680E4E31408F
:1006A000814207D10020A064606C80088000401C5B
:1006B000606408E0606C984310436064A06C0121A2
:1006C0000843A06401252846F8BD606C10436064AF
:1006D000F8E700001902FEFFE7FF3F8310B586B080
:1006E000044614216846FFF73EFD10492068884201
:1006F00019D10F48826941150A43826182690A4013
:100700000592426909020A43426140690840059026
:1007100001200090032001900020029009206946EA
:10072000C00600F0A3F806B010BD00000024014090
:1007300000100240F8B504464069254640350E4693
:1007400008280BD02068C068C00709D0606C202141
:1007500008436064002028700120F8BD082700E0ED
:100760000C2700F02DF9009011E0701C0FD0002E26
:1007700005D000F025F90099401AB04207D9606C05
:10078000042108436064002028700320F8BD20681D
:1007900000683842E9D0606C012149020843606476
:1007A0002068C16809058A0F0C21002A1AD1226A23
:1007B000002A17D10268120714D582685307012254
:1007C000002B08DB43688B434360606C1302984343
:1007D0001043606406E0606C202318436064A06CE2
:1007E0001043A064A069002801D1206801600020A6
:1007F000F8BD000070B504462168002089684907EB
:1008000021D425464035297801291CD001212970A1
:10081000E169012904D02046FFF7CAFD002811D163
:10082000616C0A4A1140FF220132114361640021C8
:10083000A164297022681C21116021688A68042340
:100840001A438A6070BD022070BD0000FEF1FFFFF8
:1008500031B500F0B5F8009C0546601C00D0641C62
:1008600000F0AEF8401BA042FAD338BDF8B5002323
:1008700089E001249C402A46A44622407ED04C6850
:10088000022C01D0122C0CD1DC08A40027183C6AE1
:100890005D07ED0E0F26AE40B4430E69AE40264311
:1008A0003E6205685E000324B4400F79A543BF078C
:1008B000BF0FB7402F4307604D68012D05D0022DB3
:1008C00003D0112D01D0122D0ED18568CF68A5431C
:1008D000B7402F43876047686546AF430D79ED0603
:1008E000ED0F9D403D434560C568A5438C68B4400D
:1008F0002C43C4604C68E40044D5264CA56901260D
:100900003543A561A4699D0834400094224CAD0094
:100910002F19BC689D072E0F0F25B540AC43092544
:10092000ED06A84201D100250AE01C4DA84201D1E4
:10093000012505E01A4DA84201D1022500E0052558
:10094000B5402543BD60174C25684E689543F603B6
:1009500000D51543256065684E689543B60300D5FC
:1009600015436560A5684E689543F60200D51543AA
:10097000A560E5684E689543B60200E002E000D548
:100980001543E5605B1C0A681546DA4000D070E745
:10099000F8BD0000001002400000014000040048C3
:1009A00000080048000401400069084000D0012010
:1009B0007047002A01D08161704781627047000052
:1009C00001480068704700002400002002480168C8
:1009D000491C0160704700002400002010B5064843
:1009E0000168102211430160002000F007F800F0B8
:1009F00017F8002010BD00000020024010B504468A
:100A000000F0D0F87D21C900FFF790FB00F006FB55
:100A100000222146501E00F017F8002010BD0000F3
:100A200008B508488169012211438161816911403B
:100A30000091C26901040A43C261C0690840009084
:100A400008BD00000010024010B500F059FD10BDB7
:100A5000F8B505464E480E460068C007C00FB042C4
:100A60000AD24B48016849084900314301600068D7
:100A7000C007C00FB04270D12878464C800705D51A
:100A80006068F0218843A968084360602878C0073F
:100A900053D06868012817D0022818D0032819D02D
:100AA00021688907002958DA6168890889000143AB
:100AB0006160FFF785FF69680746012913D00229A5
:100AC0001DD0032927D034E021688903EAE7216893
:100AD0008901E7E7616BC903E4E7FFF771FFC11B19
:100AE0002D48814223D860680007800F0128F4D187
:100AF00023E0FFF765FFC11B2748814217D86068D4
:100B00000007800F0228F4D117E0FFF759FFC11B3F
:100B1000214881420BD860680007800F0328F4D178
:100B20000BE0FFF74DFFC11B1B48814201D9032099
:100B3000F8BD60680007800FF3D115480168C90748
:100B4000C90FB1420BD9016849084900314301601E
:100B50000068C007C00FB04201D00120F8BD28785E
:100B6000400706D56068072109028843E968084301
:100B7000606000F01DF86168084A0906090F515CC1
:100B8000C840074908600020FFF738FF0020F8BD83
:100B90000020024000100240881300001C1B0008C7
:100BA000280000200148006870470000280000204D
:100BB00070B518A20FCA88B06C460FC419A30FCB2A
:100BC0000FC41C494A680C20144604401A48042CDF
:100BD00006D01A4B1A4D082C04D00C2C18D02846DD
:100BE00008B070BD9402240F6E46345DC96A04AE2D
:100BF0000907090FD203715C920F022A02D0032A5F
:100C000004D02846FFF792FA6043E9E71846F9E76F
:100C10001846E5E702030405060708090A0B0C0D50
:100C20000E0F10100102030405060708090A0B0C39
:100C30000D0E0F100010024040787D01006CDC02A8
:100C400000127A00FEB504460078F04EF04DC00761
:100C500048D068680007800F01281FD06868000727
:100C6000800F022804D16868C003800F022815D0C5
:100C70006168012919D001208004002901D00529CB
:100C800017D02968B14329602968814329606068C9
:100C900000281BD0FFF794FE074613E02868800366
:100CA00020D56068002876D01CE028683043286092
:100CB000EDE7296801432960F7E7FFF781FEC01BD4
:100CC000642869D828688003F7D50BE0FFF778FE21
:100CD000074604E0FFF774FEC01B6428F1D82868BB
:100CE0008003F7D4207880073ED568680007800F1E
:100CF00014D068680007800F022804D16868C00318
:100D0000800F01280AD0E068002828681DD0012142
:100D100008432860FFF754FE07460BE02868800769
:100D20000BD5E068012836D107E0FFF749FEC01B6C
:100D30000228C6D828688007F7D52868F821884394
:100D40002169C900084328600EE04008400028607F
:100D5000FFF736FE074604E0FFF732FEC01B02280D
:100D6000AFD828688007F7D42078000724D5E06939
:100D70000028686A11D0012108436862FFF720FE4D
:100D8000074604E0FFF71CFEC01B022899D8686ADA
:100D90008007F7D510E036E1D1E0400840006862F6
:100DA000FFF70EFE074604E0FFF70AFEC01B02280D
:100DB00087D8686A8007F7D420780427400700287E
:100DC00061DA00200190E869C00008D4E969B8063A
:100DD0000143E961E96901400120009101908D48DA
:100DE0000168C90511D40168821511430160FFF73C
:100DF000E7FD009005E0FFF7E3FD0099401A642845
:100E000097D884480068C005F5D5A06801280AD0A5
:100E1000002801D0052811D0286A40084000286227
:100E2000286AB84302E0286A012108432862A068C2
:100E3000002812D0FFF7C4FD00900AE0286A38436A
:100E40002862F0E7FFF7BCFD0099411A7248814221
:100E500075D8286A8007F5D50DE0FFF7B1FD009041
:100E600006E0FFF7ADFD0099411A6B48814266D854
:100E7000286A8007F5D40198002804D0E969012088
:100E800000078143E9612078C00635D560690128F3
:100E90000CD0401D686B24D038436863686B4008F1
:100EA00040006863FFF78CFD074622E0686B38431B
:100EB0006863686B012108436863FFF781FD07469B
:100EC00004E0FFF77DFDC01B022838D8686B80075F
:100ED000F7D5686BF8218843A169C90008436863A6
:100EE0000AE0B8436863F4E7FFF76AFDC01B022815
:100EF00025D8686B8007F7D42078800637D56868D6
:100F00000007800F032813D068680007800F0228AD
:100F100004D16868C003800F032809D0206A002824
:100F2000686B16D030436863FFF74AFD06460CE055
:100F3000686BC0031BD5206A012864D117E05BE011
:100F4000FFF73EFD801B022856D8686BC003F7D51B
:100F50000DE0B0436863FFF733FD064604E0FFF79A
:100F60002FFD801B022847D8686BC003F7D4606A46
:100F7000002846D069680907890F022943D0012655
:100F800036060228286805D0B0432860FFF718FD10
:100F9000044633E0B0432860FFF712FD074604E043
:100FA000FFF70EFDC01B022826D828688001F7D461
:100FB000E86A216B000900010843E862A16AE06A5F
:100FC000084369687B22D20391430843686028681C
:100FD00030432860FFF7F4FC044604E0FFF7F0FC20
:100FE000001B022808D828688001F7D509E0FFF720
:100FF000E7FC001B022801D90320FEBD2868800100
:10100000F5D40020FEBD0120FEBD0000000001005F
:10101000001002400070004088130000094910B51C
:10102000401E884201D9012010BD074C6061032198
:10103000081F00F065FA0020A06107202061002051
:1010400010BD0000FFFFFF0000E000E070B50346A8
:1010500020331A7F012A27D001241C7702225A77D5
:101060000326CA683602B2438E6800253243A602C0
:10107000B2434E6800683243E602B2430E68324320
:101080002603B2430E6932436603B2434E6989694F
:101090003243A603B2430A43E603B2430A4342641F
:1010A0005C771D77002070BD022070BD70B50246D0
:1010B0002032137F012B1BD0012313770224547796
:1010C000046865687026B5436560046865680E68E5
:1010D000354365600468A5688026B543A56000684F
:1010E000846849680C43846053770020107770BD92
:1010F000022070BD70B5040005D025462035687FFC
:10110000002802D006E0012070BD0020287720468C
:1011100000F00AF802206877211D206800F066FAC6
:1011200001206877002070BD08B500680649884234
:1011300008D106488269012149040A438261806915
:101140000840009008BD000000440140001002402B
:1011500010B586B0044614216846FFF704F82368EA
:10116000174C002117480222A34210D144695304AE
:101170001C4344614069029118400590032000908F
:10118000012003910490019269460F4814E00F4C2E
:10119000A34213D1446901235B041C4344614069A9
:1011A0000291184005904020009005200490039182
:1011B000092001926946C006FFF758FB06B010BD32
:1011C00000040040001002400004004800440140B8
:1011D000F8B5064604462036307F0D4601280DD06E
:1011E00001203077022070770427002A08D0042AD3
:1011F00016D0082A2AD00C2A4DD137E00220F8BD9B
:10120000206800F041FA2068816908221143816159
:1012100020688169B9438161206881692A6912E087
:10122000206800F06DFA206882690121C9020A4332
:101230008261206881690122920291438161206864
:1012400081692A6912021143816124E0206800F05B
:1012500091FA2068C26908210A43C2612068C16905
:10126000B943C1612068C1692A6912E0206800F0B1
:10127000BDFA2068C1690122D2021143C161206810
:10128000C269012189028A43C2612068C1692A6951
:1012900012021143C1610120707700203077F8BD40
:1012A00070B5040005D025462035687F002802D09F
:1012B00006E0012070BD00202877204600F00AF8E3
:1012C00002206877211D206800F090F901206877DE
:1012D000002070BD08B500680549884207D105485F
:1012E000C26902210A43C261C0690840009008BD7A
:1012F000000400400010024010B5044600680122BE
:1013000000F0B6F90A482168814205D009488142B7
:1013100002D00948814204D1486C0122D203104313
:10132000486420680168012211430160002010BD5B
:10133000002C01400044014000480140FEE700004D
:101340003EB50024134800940194114902940160B1
:1013500084604905C46041600346012104221033C2
:1013600016C3C4614462C462FF220162C2320463D4
:1013700082624163FFF7F8F8012000030190072023
:101380000290009469460348FFF754F83EBD000000
:10139000002401402C00002030B587B0142168469D
:1013A000FEF7E1FE19484269012189050A434261BD
:1013B00042690A400592426949110A434261426901
:1013C0000A400592426949000A4342614069092581
:1013D0000840ED060590002202212846FFF7E9FAB1
:1013E0000220009001240320039001940294694696
:1013F0002846FFF73BFA3020009000200190694614
:1014000002942846FFF732FA07B030BD00100240C0
:1014100010B58EB01C216846FEF7A5FE1C2107A85A
:10142000FEF7A1FE194818490160FF210024E031B0
:10143000846041600461446118218461C160FFF7E8
:1014400059FE1248FFF72CFF60200594019400908C
:101450000294039404940022694606940B48FFF713
:10146000B7FE01200794400308940C9009940A9455
:101470000B9407A90D940548FFF7E8FD0348FFF713
:1014800067FE0EB010BD000000440140B80000200F
:1014900010B58AB0002407941C2168460894FEF712
:1014A00062FE144812490160FF21E031846041600E
:1014B000046111498461C160FFF7F2FE079407A936
:1014C0000C480894FFF7F2FD60200090019402940C
:1014D0000822694604940748FFF77AFE0C22694601
:1014E0000448FFF775FE0348FFF732FE0AB010BD4F
:1014F0000004004078000020CF0700007047000083
:101500008307FF22DB0E9A408907090E99400028C5
:101510000BDA0007000F0838830808489B001818EA
:10152000C36993430B43C3617047830804489B001E
:101530001B181868904308431860704700ED00E0DE
:1015400000E400E07047704710B5FFF73FFA10BDA8
:1015500010B592B034216846FEF705FE00240F94C2
:10156000202000900D9401200E940890109409946E
:101570006846FFF767FB07200D9003200E900F943D
:10158000012110940DA8FFF763FA12B010BD0000FE
:10159000134801680122114301604168114A11405A
:1015A00041600168104A1140016001680122920403
:1015B0009143016041683F22120491434160C16A36
:1015C00009090901C162016BFF22D4329143016311
:1015D000416B490849004163002181607047000068
:1015E000001002400CB8FF08FFFFF6FEF0B50268DD
:1015F0001A4B0124A4071A4D984203D0A04201D0EF
:10160000A84203D17026B2434E683243154E164F9E
:1016100098420AD0A04208D0A84206D0134CA0425B
:1016200003D0B04201D0B84204D103242402A24323
:10163000CC6822438024A2434C69224302608A681A
:10164000C2620A688262984203D0B04201D0B842B6
:1016500001D10969016301214161F0BD002C014004
:1016600000040040004401400048014000200040C8
:1016700010B50123046A8B409C430462036A8A40CC
:101680001343036210BD0000F0B5026A5208520015
:101690000262056A436882697024A24392080C685A
:1016A00092001443022295438A68134E2A43114D37
:1016B000A84204D0B04202D0104FB84206D1082749
:1016C000BA43CF681743042297433A46A84204D04E
:1016D000B04202D0094DA84206D103252D02AB43EA
:1016E0004D691D438B692B434360846149684163A5
:1016F0000262F0BD002C014000440140004801405E
:1017000070B5026A10239A430262046A43688269D0
:1017100073252D02AA430D682D0215432022944300
:101720008A6812012243104CA04208D11446CA68AC
:101730008026B443120122434024A24305E00B4C0F
:10174000A04202D00A4CA04208D10324A402A34321
:101750004C69A4001C438B699B0023434360856153
:1017600049688163026270BD002C01400044014061
:101770000048014070B5026AFF2301339A430262B8
:10178000046A4368C2697025AA4392080D689200F2
:1017900015430122520294438A6812022243104CDC
:1017A000A04207D1C414A243CC68240222430615E8
:1017B000B24305E00B4CA04202D00B4CA04208D132
:1017C00003242403A3434C6924011C438B691B019C
:1017D00023434360C5614968C163026270BD000074
:1017E000002C0140004401400048014030B5026A2D
:1017F00001231B039A430262056A4268C36973248A
:101800002402A3430C6824021C4301235B039D4371
:101810008B681B032B430A4DA84205D0094DA842F3
:1018200002D0094DA84205D10125AD03AA434D6957
:10183000AD012A434260C46149680164036230BD5E
:10184000002C0140004401400048014002E008C86B
:10185000121F08C1002AFAD170477047002001E02A
:1018600001C1121F002AFBD170470000FFF7B6F834
:10187000FFF76EFEFFF790FDFFF762FDFFF708FE32
:10188000FFF7C6FD08219B48FFF736FD0C2199485C
:10189000FFF732FD974800214030FFF72DFD09206A
:1018A00000220221C006FFF784F80127924C002590
:1018B0000926F60610213046FFF776F8002805D0F5
:1018C000A561E7702078002804D022E0A069401CC0
:1018D000A061F7E7FF20A1692D30814247D3E0786E
:1018E000012844D12770012202213046FFF761F818
:1018F000824800686061E5708148FEF7A9FF7D4875
:1019000064210268D163006801647D20C000FEF795
:101910009FFF207801280ED1FF20A1692D30814240
:1019200018D3E078012815D1257000220221304615
:10193000FFF73FF8E5702078022802D0012809D08F
:1019400015E0E078012812D1A0690A280FD327708A
:101950006570E570694800686169401A69498842A4
:1019600005D32570002202213046FFF722F8092016
:101970002021C006FFF718F800280AD0E56127717A
:10198000207801284BD0607801280AD0022846D060
:1019900011E0E069401CE061F2E70220207067700E
:1019A00008E0E0690A2806D32079012803D1022043
:1019B0002070607025714F484C38FEF71BFF4D4872
:1019C0000A214C38FEF7B6FE4A4EA57080364948CB
:1019D0004C38FEF7C5FDA1788A00B050491CC8B24A
:1019E000A0703228F3D3A560A5702846A1788A009C
:1019F000B258491CC9B21018A1703229F6D332214D
:101A0000A060FEF793FBE060FEF74FFC3E49FEF757
:101A10000EFC20612078022808D064200FE0E069E5
:101A20000A28C8D320790128B7D0C4E760780128F4
:101A300002D0022802D003E0962000E0AF20E08030
:101A4000E088FEF732FC216AFEF754FC04D22F49ED
:101A5000206AFEF793FB0DE0E088FEF726FC216A82
:101A6000FEF73EFC01D3206A05E07F21C905206A0C
:101A7000FEF7D5FB20622649884202DB25498842D1
:101A800000DD0846206283222169D20591420ADBEB
:101A90006179002916D1FEF70FFC16490A68D06358
:101AA0000968086413E0257009206570002202218E
:101AB000C006FEF77EFF0F4967710A686420D06395
:101AC0000968086414492069884200DB6571E1698E
:101AD000A069084305D007481421403000684163DD
:101AE00003E004484030006845630A20FEF7B0FE7A
:101AF000DEE6000078000020000000202400002026
:101B0000B80B000000BADB0078390D439A99993E72
:101B10000000C84200004843000098410000000057
:101B20000000000001020304060708094C1B00081E
:101B3000000000202C0000004C180008781B000852
:101B40002C000020940500005C1800080000000034
:101B50000000000000000000000000000000000085
:101B60000000000000000000000000000000000075
:081B70000000000000127A00E1
:04000005080000C12E
:00000001FF
